:020000020000FC
:0200000045C0F9
:10008C0022240FEF0DBF00E10EBFE8EBF1E0C0E062
:10009C00D1E0A0E0BEE01124002411E021E01ED04C
:1000AC0060D02DD041D0532E912F730F8827442729
:1000BC003327EAEBF1E012D054D021D035D0731FA6
:1000CC00882744273327ECEBF1E008D04AD017D02F
:1000DC002BD0731F9D9336D00C94DA00059100023F
:1000EC000D92009204011D921092030105910002E1
:1000FC000D92009206011D9210920501089531E0B7
:10010C002224339F821521F4401564F43395F9CFE2
:10011C00811521F0811530F03395F3CF401514F48F
:10012C003395EFCF3D930895531611F048F0089591
:10013C002395233011F0223009F09DEF9EEF0895A6
:10014C00532E08950027332703E0701718F0701B07
:10015C003395FACF7395701709F001C033953C9322
:10016C0008953F924F921F920F922F92FF93EF930D
:10017C00DF93CF93E2E0F1E0C4E0D1E0019149914B
:10018C00400F4D93442F00814881401F4D93842F85
:10019C0008F4FD93CF91DF91EF91FF912F900F9089
:1001AC001F904F903F9008950000FECFF9FD03047F
:0201BC0081764A
:00000001FF
