:020000020000FC
:0200000045C0F9
:1000040097C0189588C0189574C0189560C0189545
:10008C000FEF0DBF00E10EBF5FE66FE00FEF07BB98
:10009C00052F08BB00E001BB0FEF02BB0AEA00937F
:1000AC006A000FE009BFBC9A49E643BF42E047BF74
:1000BC00BF9A49E645BD42E047BF789421E1052F40
:1000CC0008BBFDCF08950F930FB70F93F89408B3A7
:1000DC000F36A9F3120F339541B7410F41BF0FEF04
:1000EC0008BF0F910FBF0F9118950F930FB70F9378
:1000FC00F89408B3003619F3121B3A9541B7411B1B
:10010C0041BF0FEF08BF0F910FBF0F9118950F93C1
:10011C000FB70F93F8941FEF3FE011BF0FEF08BF1D
:10012C000F910FBF0F9118950F930FB70F93F89472
:10013C0010E030E011BF0FEF08BF0F910FBF0F9110
:02014C00189504
:00000001FF
