:020000020000FC
:0200000045C0F9
:100004008DC018957FC018956DC018955BC0189564
:10008C000FEF0DBF00E10EBF5FE66FE00FEF07BB98
:10009C00052F08BB00E001BB0FEF02BB0AEA00937F
:1000AC006A000FE009BF49E743BF49E745BD21E1BD
:1000BC007894FFCF3BD00FEF08BF0895F89404E17C
:1000CC0035D001B70F3FB1F3120F339511BF13BDEC
:1000DC0000E6030F08BB0FEF08BF0895F89404E186
:1000EC0025D001B7003031F3121B3A9511BF13BD67
:1000FC0000E6030F08BB0FEF08BF0895F89404E166
:10010C0015D01FEF3FE011BF13BD0FE608BB0FEF7B
:10011C0008BF0895F89404E109D010E030E011BF55
:10012C0013BD00EF08BB0FEF08BF08950F938F931B
:10013C007F9370EE8DEE8A95F1F77A95D9F70A9543
:0A014C00C1F77F918F910F91089584
:00000001FF
