:020000020000FC
:0200000045C0F9
:100004009CD0189588D0189570D018955AD018950A
:10008C000FEF0DBF00E10EBF5FE66FE00FEF07BB98
:10009C00052F08BB00E001BB0FEF02BB0AEA00937F
:1000AC006A000FE009BF49E443BF49E445BD05E0E0
:1000BC000EBD789421E1FFCF08950F930FB70F93E6
:1000CC00F89404E148D001B70F3FA9F3120F339510
:1000DC0011BF13BD38BB0FEF08BF0F910FBF0F91AE
:1000EC0008950F930FB70F93F89404E134D001B730
:1000FC00003009F3121B3A9511BF13BD00E6030F34
:10010C0008BB0FEF08BF0F910FBF0F9108950F930E
:10011C000FB70F93F89404E11ED01FEF3FE011BF0F
:10012C0013BD0FE608BB0FEF08BF0F910FBF0F9168
:10013C0008950F930FB70F93F89404E10CD010E0CF
:10014C0030E011BF13BD00EF08BB0FEF08BF0F91DC
:10015C000FBF0F9108950F938F937F9370EE8DEED9
:10016C008A95F1F77A95D9F70A95C1F77F918F9116
:04017C000F91089542
:00000001FF
