:020000020000FC
:0200000045C0F9
:1000040091C0189582C018956FC018955CC018955A
:10008C000FEF0DBF00E10EBF5FE66FE00FEF07BB98
:10009C00052F08BB00E001BB0FEF02BB0AEA00937F
:1000AC006A000FE009BF49E443BF49E445BD7894B9
:1000BC0021E1FFCF40D00FEF08BF78940895F8945A
:1000CC0004E139D001B70F3FA9F3120F339511BFDB
:1000DC0013BD00E6030F08BB0FEF08BF789408951B
:1000EC00F89404E128D001B7003021F3121B3A95A3
:1000FC0011BF13BD00E6030F08BB0FEF08BF7894C8
:10010C000895F89404E117D01FEF3FE011BF13BD21
:10011C000FE608BB0FEF08BF78940895F89404E13C
:10012C000AD010E030E011BF13BD00EF08BB0FEF99
:10013C0008BF789408950F938F937F9370EE8DEE94
:10014C008A95F1F77A95D9F70A95C1F77F918F9136
:04015C000F91089562
:00000001FF
