:020000020000FC
:0200000045C0F9
:10008C0022240CD0000000001AD00000000028D060
:10009C0000000000000041D00000FFCFA0E1B1E063
:1000AC00C2E1D1E0E0E2F1E00D914991400F4193C2
:1000BC000C914881401F419308F4B0830895A4E249
:1000CC00B1E0C6E2D1E0E8E2F1E00D914991401BCC
:1000DC0041930C914881400B419308F4B0830895EF
:1000EC002224C3E4D1E0E6E4F1E013E0A0E4B1E0C3
:1000FC0023E03D904880349C31904190030C141CBB
:10010C003080321C30821292029231962A9589F7F5
:10011C00319721961A9551F708952224A5E1B1E063
:10012C00C6E1D1E00D919C9049915881A4E2B1E0D7
:10013C00C6E2D1E00D939C9249935883C0DFA8E2AC
:10014C00B1E0C7E1D1E00D919C9049915881A0E1BB
:10015C00B1E0C2E1D1E00D939C92499358839EDFAC
:10016C00A0E2B1E0C0E4D1E0E3E4F1E00D919D90B8
:10017C004D91099399924993019391924193000067
:10018C00AFDFA6E4B1E0C2E5D1E00D919D904D91B9
:10019C005D916D917C9109939992499359936993CF
:1001AC00788308953F924F921F920F922F92BF9394
:1001BC00AF93DF93CF93FF93EF931F932F9322244F
:1001CC00C2E0D1E0E4E0F1E012E0A0E0B1E022E036
:1001DC003D904880349C31904190030C141C30802D
:1001EC00321C30821292029231962A9589F73197FD
:1001FC0021961A9551F72F911F91EF91FF91CF9165
:10020C00DF91AF91BF912F900F901F904F903F9027
:10021C0008950895BAFCFFFFB9FC20E4FFFFBAFC77
:04022C001920BB21B9
:00000001FF
