:020000020000FC
:0200000045C0F9
:10008C000FEF0DBF00E10EBF4AD040E001BB4FEFB8
:10009C0002BBEEE0F1E0C0E0D1E02EE00591099367
:1000AC002A95E1F7ECE1F1E0C0E1D1E02EE0059119
:1000BC0009932A95E1F700B30370003811F491D03D
:1000CC000CC0023021F40AD07CD06BD006C00130B9
:1000DC0021F4D6DF66D075D000C0EDCFECE1F1E0B5
:1000EC00C0E0D1E02EE0059109932A95E1F7EEE00E
:1000FC00F1E0C0E1D1E02EE0059109932A95E1F7FA
:10010C0008954A6F73657068204E6F6F6E616E2034
:10011C004D617474686577204C65766973200F9314
:10012C000FB70F931F9300E008BB0FEF07BB00E066
:10013C0002BB00E001BB00E00093620008E000930A
:10014C00610000E50DB901E00EB900E805BF02E45D
:10015C0000936D0000E800936C0000E00BB908E11F
:10016C000AB906E00093950000E00093900007E6C2
:10017C0009B906E01AEFBFD00A95E1F708E397D06A
:10018C0008E095D001E093D006E091D00CE08FD040
:10019C0028D01F910F910FBF0F91089502D011D04D
:1001AC0008950F93EF93FF932F933F93E0E0F1E0CB
:1001BC0030E86BD076D03F912F91FF91EF910F915A
:1001CC0008950F93EF93FF932F933F93E0E1F1E0AA
:1001DC0030EC5BD066D03F912F91FF91EF910F9156
:1001EC00089502D011D008950F933F932F93EF935E
:1001FC00FF9330E84AD0E0E0F1E04CD0FF91EF9172
:10020C002F913F910F9108950F933F932F93EF935D
:10021C00FF9330EC3AD0E0E1F1E03CD0FF91EF916C
:10022C002F913F910F9108950F933F932F93283265
:10023C0050F4313011F430E803C0323021F430EC9A
:10024C00320F23D042D02F913F910F9108950F93ED
:10025C006F935F93BF93AF93043618F023E013961C
:10026C0007C00A3018F022E0129602C0119621E065
:10027C004AD000E3060F0E93052F0030C9F7AF915B
:10028C00BF915F916F910F9108950F93032F0FD032
:10029C000F91089500E220E1019317D02A95E1F720
:1002AC00089520E1019111D02A95E1F708954F931B
:1002BC001F9340E013D00F9302E01DEC1CD00A9565
:1002CC00E1F70F911F914F9108954F931F9341E0C8
:1002DC0005D010E110D01F914F9108954FB912E045
:1002EC000AD00FB912E007D018E01093620010E0AA
:1002FC001093620008950F9309E40A95F1F71A958B
:10030C00D9F70F9108950F92502F56955695500F7F
:10031C005695500F569556955695500F5695500F1D
:10032C00569556955695500F5695500F5695569581
:10033C0056955695652F660F660F650F660F062E40
:10034C00602F60196A3018F053956A50FBCF0F90EC
:02035C00089502
:00000001FF
