:020000020000FC
:0200000045C0F9
:080004006BD0189581D018950E
:0400780063D01895A4
:10008C0000E10EBF0FEF0DBF0FEF07BB00E008BB89
:10009C0000E001BB0FEF02BB03E00093980000E40B
:1000AC000093990002E000939B0008E900939A00EA
:1000BC000EE000939D000AE000936A0003E009BF84
:1000CC00442750E6332794E6002766277894FFCF21
:1000DC000F930FB70F93F89400E000939A0000E091
:1000EC0008BB7AD000E408BB77D000E608BB00E977
:1000FC0000939A000FEF08BF0F910FBF0F91089557
:10010C000F930FB70F93F89400E000939A0000E060
:10011C0008BB94E661D000E208BB94E65DD000E633
:10012C0008BB00E900939A000FEF08BF0F910FBFB7
:10013C000F910895F89410919C00103B69F01038C1
:10014C0079F0103A89F0103991F0183C99F0183F79
:10015C0089F10FEF08BF0895F89400E608BBF9CFBA
:10016C00F89400E008BBF5CF00E408BBF2CF00E246
:10017C0008BBEFCF00E908BBECCF4330F1F30F9392
:10018C0008EF08BBF89428D027D026D025D024D04F
:10019C000FEF08BF00919B00006E00939B004395EE
:1001AC00433059F358BB08951A3111F430E08FCF16
:1001BC0031E08DCF0F93F89400919B0005FFFACF9F
:1001CC0005E500939C0008D000919B00006E009305
:1001DC009B0078940F9108959F937F938F9380EE5B
:1001EC007DEE7A95F1F78A95D9F79A95C1F78F91AB
:0601FC007F919F91089520
:00000001FF
