:020000020000FC
:0200000045C0F9
:10008C000FEF0DBF00E10EBF00E001BB0FEF02BB95
:10009C0002E000939B0008E000939A000EE00093AE
:1000AC009D0003E00093980000E40093990078947D
:1000BC0000B3013049F0023049F0043049F0083007
:1000CC0049F0003149F00CC010EB0AC010E808C030
:1000DC0010E906C010EA04C018EC02C018EF00C00A
:1000EC0002D009D0E5CF00919B0005FFFCCF0AE1BF
:1000FC0000939C00089500919B0005FFFCCF10938A
:04010C009C000895B6
:00000001FF
