:020000020000FC
:0200000045C0F9
:0400780062D01895A5
:10008C0000E10EBF0FEF0DBF0FEF07BB00E008BB89
:10009C0000E001BB0FEF02BB03E00093980000E40B
:1000AC000093990002E000939B0008E900939A00EA
:1000BC000EE000939D000AE000936A0003E009BF84
:1000CC00442750E6332794E600277894FFCF0F930C
:1000DC000FB70F93F89400E000939A0000E008BB70
:1000EC007ED000E408BB7BD000E608BB00E900939F
:1000FC009A000FEF08BF0F910FBF0F9108950F9348
:10010C000FB70F93F89400E000939A0000E008BB3F
:10011C0094E665D000E208BB94E661D000E608BB2B
:10012C0000E900939A000FEF08BF0F910FBF0F91DA
:10013C000895F89410919C00103B59F0103869F018
:10014C00103A79F0103981F0183C89F00FEF08BFA4
:10015C000895F89400E608BBF9CFF89400E008BBCA
:10016C00F5CF00E408BBF2CF00E208BBEFCF00E90B
:10017C0008BBECCF4330F1F30F9300E908BBF894C4
:10018C002ED02DD02CD02BD02AD00FEF08BF009121
:10019C009B00006E00939B004395433059F358BB72
:1001AC0078940F9108951A3121F430E00FEF08BFC5
:1001BC008DCF31E00FEF08BF89CF0F93F8940091EA
:1001CC009B0005FFFACF05E500939C0008D0009139
:1001DC009B00006E00939B0078940F9108959F9361
:1001EC007F938F9380EE7DEE7A95F1F78A95D9F710
:0C01FC009A95C1F78F917F919F91089513
:00000001FF
