:020000020000FC
:0200000045C0F9
:10008C000FEF0DBF00E10EBF00E001BB0FEF02BB95
:10009C0000E007BB0FEF08BB02E002B902E00093DF
:1000AC009B000091980003600093980000E400937B
:1000BC00990008E000939A000EE000939D00879B46
:1000CC000BC0869B0BC0819B0BC0809B0BC0849B81
:1000DC000BC0859B0BC00CC010EB0AC010E808C00D
:1000EC0010E906C010EA04C018EC02C018EF00C0FA
:1000FC0002D008D0E4CF00919B0005FFFCCF0AE1B1
:10010C0000939C0000919B0005FFFCCF10939C007A
:0C011C00089500919B0006FFFCCF0895A1
:00000001FF
