:020000020000FC
:0200000045C0F9
:080004006AD018957CD0189514
:0400780058D01895AF
:10008C0000E10EBF0FEF0DBF0FEF07BB00E008BB89
:10009C0004E001BB03EF02BB02E000939B0000E90C
:1000AC0000939A000EE400939D0003E000939800E7
:1000BC0000E40093990003E009BF0AEA00936A0088
:1000CC0040E050E094E600E608BB7894FFCF0F9335
:1000DC000FB70F93F89400E008BB94E666D000E4E9
:1000EC0008BB94E662D000E608BB0FEF08BF0F9187
:1000FC000FBF0F9108950F930FB70F93F89400E073
:10010C0008BB94E652D000E208BB94E64ED000E661
:10011C0008BB0FEF08BF0F910FBF0F9108950F93FE
:10012C0010919C00153541F1212F207849F00130B8
:10013C0069F2183F79F018BB0FEF08BF0F910895C3
:10014C001A3121F400E00FEF08BFC0CF01E00FEF30
:10015C0008BFBCCF0F93F89400919B0005FFFACF1A
:10016C0005E500939C0021D000919B00006E00934C
:10017C009B0078940F9108954330F1F30F9300E9AD
:10018C0008BBF89412D011D010D00FD00ED00FEFB6
:10019C0008BF00919B00006E00939B004395433079
:1001AC0059F358BB78940F9108959F937F938F9335
:1001BC0080EE7DEE7A95F1F78A95D9F79A95C1F78D
:0801CC008F917F919F9108952E
:00000001FF
